:04000000803116280D
:100008007E14803100308600003087002000111CEB
:100018000E280F2814288E310F2680312000111049
:100028007E10090080311828533084000030850084
:1000380012308C3168248031A03084000030850073
:1000480049308C31682480312030840001308500AB
:1000580028308C3168248031A0308400013085003C
:100068002A308C31682480317E1020008C316E2C2F
:100078002000CA01CB01CC01FF30E400E301E2011A
:10008800C9014935A03E8600013087000030C03FD5
:10009800C13F0130C90715304902031C54285528AF
:1000A80045284A30F1004B30F2004C30F300033061
:1000B8008531182580312000C800480803196528B3
:1000C8006628FC290130E40005302100D7000430FF
:1000D800D8000230E6000F30DF000E30E0000D30AF
:1000E800E1000C30E2001730DE001630DD0015307C
:1000F800DA001430DB001330DC001230E30011307A
:10010800E4001030E5002000CA1E8B288C289B28AC
:100118000230C2000030C3006235203E8600013044
:1001280087004208C03F4308C13F0130E2074A1E2A
:100138009E289F28AE280330C2000030C3006235D5
:10014800203E8600013087004208C03F4308C13F77
:100158000130E2074A1DB128B228C1281130C20077
:100168000030C3006235203E860001308700420817
:10017800C03F4308C13F0130E207CB1FC428C52850
:10018800D4280A30C2000030C3006235203E860001
:10019800013087004208C03F4308C13F0130E207F1
:1001A8004B1FD728D828E7280B30C2000030C300DF
:1001B8006235203E8600013087004208C03F430870
:1001C800C13F0130E207CB1EEA28EB28FA280C30A1
:1001D800C2000030C3006235203E8600013087002F
:1001E8004208C03F4308C13F0130E2074B1EFD28CB
:1001F800FE280D290D30C2000030C3006235203EB4
:100208008600013087004208C03F4308C13F0130E3
:10021800E207CC1F1029112920290930C20000301B
:10022800C3006235203E8600013087004208C03F87
:100238004308C13F0130E2074C1F232924293329F1
:100248000830C2000030C3006235203E860001300D
:1002580087004208C03F4308C13F0130E207CC1E77
:100268003629372946290530C2000030C3006235D7
:10027800203E8600013087004208C03F4308C13F46
:100288000130E2074C1E49294A2959290630C20083
:100298000030C3006235203E8600013087004208E6
:1002A800C03F4308C13F0130E207CC1D5C295D29EE
:1002B8006C290730C2000030C3006235203E86003A
:1002C800013087004208C03F4308C13F0130E207C0
:1002D8004C1D6F2970297F290E30C2000030C300E1
:1002E8006235203E8600013087004208C03F43083F
:1002F800C13F0130E207CC1C8229832992290F30A3
:10030800C2000030C3006235203E860001308700FD
:100318004208C03F4308C13F0130E2074C1C952901
:100328009629A5291030C2000030C3006235203E4E
:100338008600013087004208C03F4308C13F0130B2
:10034800E2074A0821008C0420004A0823008C0494
:1003580020004B0821008D0420004B0823008D0449
:1003680020004C0821008E0420004C0823008E0435
:100378000E302000B8009130B9008C31A1248031B2
:100388000C302000B8009030B9004A08C200C30100
:100398004208BA004308BB004B08C400C501440822
:1003A800BC004508BD004C08C600C7014608BE0091
:1003B8004708BF008C31A12480318B1321009B0199
:1003C8009C019E171E088F3910389E0011131D14AA
:1003D8003F3020009B05CF309B05D8309A00EF3086
:1003E800990011102100111420001B140B178B17F2
:1003F80008002000220886008701403FA400413FF2
:10040800A50024088400250885001200253A031D4C
:100418000E2A0F2A3E2B2208860087010130810709
:1004280041310318810AD801D9010030DC00FF30BE
:10043800DA00FF30DB00220886008701403FAA006F
:10044800413FAB002A0884002B0885001200643A5B
:1004580003192F2A302A3A2A2A0884002B088500F3
:100468001200693A031D392A3A2AC22A230886004B
:10047800870101088400850102308107003FAC0034
:10048800013FAD002A08013EA40000302B3DA50025
:100498002208860087012408C03F2508C13F203074
:1004A800B000AD1B582A5A2A01305B2A0030A80038
:1004B8000130B0023008A03E860087010A30F10002
:1004C8000030F2002D08F4002C08F3008E319E262F
:1004D80081317208F8007108F7008C31C12481312C
:1004E8007708303E81000A30F1000030F200200029
:1004F8002D08F4002C08F3008F3149278131720848
:100508002000AD007108AC002C082D0403198D2AB9
:100518008E2A932A3008031D922A932A5C2A3008CF
:100528000319972A982ABB2A280803199C2A9D2A66
:10053800BB2A0130B0023008A03E860087012D306A
:100548008100BB2A3008A03E860087010108A4006C
:10055800A5012408F2002508F3002108F500200869
:10056800F4008F31A427813101302000B0072030FA
:100578003006031DC02AC12AA62A582B2A0884003F
:100588002B0885001200783A031DCB2ACC2A342B7D
:10059800230886008701010884008501023081074D
:1005A800003FAC00013FAD002A08013EA400003026
:1005B8002B3DA5002208860087012408C03F250896
:1005C800C13F2B2B2030B0002C080F39A9000A306E
:1005D80029020318F02AF12AF42A3030A907F62A4A
:1005E8005730A9070130B0023008A03E86008701C5
:1005F800290881000430AD36AC0C890BFF2A2C0881
:100608002D040319082B092B242B3008031D0D2B4F
:100618000E2BE82A242B3008A03E8600870101080B
:10062800A400A5012408F2002508F3002108F5001C
:100638002008F4008F31A427813101302000B00751
:1006480020303006031D292B2A2B0F2B582B2A0864
:1006580084002B0885000008783A0319E62A342B11
:1006680020002208860087010130810741310318E4
:10067800810A582B220886008701403FA400413F89
:10068800A50024088400250885000008A600A70105
:100698002608F2002708F3002108F5002008F400D6
:1006A8008F31A4278131342B08002000CF00CC01E2
:1006B800CD01D0014F08033ECE004F08533E8600BF
:1006C800870181016108031D6A2B6B2B6E2B023099
:1006D800D1007D2B6008031D722B732B762B043001
:1006E800D1007D2B5F08031D7A2B7B2B3B2C06301A
:1006F800D1004C30F1004D30F2005030F3004E087C
:100708008531182583312000CA004A08031D8D2B26
:100718008E2B8F2B3B2C4F08533E860087010130D0
:100728008100CB0102305106031D9B2B9C2BA02B73
:100738004F08E1000130CB0004305106031DA52B02
:10074800A62BAA2B4F08E0000230CB00063051063A
:10075800031DAF2BB02BB42B4F08DF000330CB00A9
:10076800DF30B8009030B9004F08C200C30142081A
:10077800BA004308BB008C31A1248331003020002B
:10078800B8009030B9005108C200C3014208BA004D
:100798004308BB004C08C400C5014408BC00450818
:1007A800BD004D08C600C7014608BE004708BF0087
:1007B8005008C800C9014808C0004908C1008C3168
:1007C800A124833120004C08F1004D08F2005008A4
:1007D800F3004E088531DD258331043020004E06B4
:1007E800031DF72BF82BFC2B4B088C317724833116
:1007F800053020004E06031D022C032C072C4B0845
:100808008C3182248331063020004E06031D0D2CC6
:100818000E2C122C4B088C31B12483310730200068
:100828004E06031D182C192C1D2C4B088C31D22474
:100838008331023020005106031D232C242C272C41
:100848008C3156248331043020005106031D2D2C91
:100858002E2C312C8C315C2483310630200051063B
:10086800031D372C382C3B2C8C3162248331080033
:100878002000C901CB01CD01CA01CC01CE01DE01A6
:10088800DD0123009E019D019F018D316325843187
:100898004930F1004B30F2004D30F3000A30853119
:1008A800182584312000C800480803195C2C5D2CE9
:1008B8006A2C4908F1004B08F2004D08F3000A3091
:1008C8008531DD25843101302000DE004A30F10019
:1008D8004C30F2004E30F3000B308531182584314E
:1008E8002000C8004803031D7A2C7B2C882C4A085A
:1008F800F1004C08F2004E08F3000B308731042752
:10090800843101302000DD005E08031D8C2C8D2C05
:10091800932C5D08031D912C922C932C172D2300EA
:100928001E129F151E1500309C0008309B002000E9
:100938005E03031DA02CA12CA62C23001E139E16BB
:100948002100111220005D03031DAB2CAC2CB12C2F
:1009580023001D131D162100911223009D171C3022
:100968002000B8009130B9008C31A12484311C30AA
:100978002000B8009130B9008C31A1248431953021
:100988002000B8009030B9008C31A1248431FF30A8
:100998002000B8009030B9008C31A12484312000A7
:1009A8005E03031DD82CD92CF52C6630B800903086
:1009B800B9004908C200C3014208BA004308BB0095
:1009C8004B08C400C5014408BC004508BD004D08DB
:1009D800C600C7014608BE004708BF008C31A124E5
:1009E800843120005D03031DFA2CFB2C172D3730B2
:1009F800B8009030B9004A08C200C3014208BA00E2
:100A08004308BB004C08C400C5014408BC004508A5
:100A1800BD004E08C600C7014608BE004708BF0013
:100A28008C31A12484310800F500F4017108860096
:100A38008701810172088600870181017308860099
:100A480087018101210042087506031D2C2D2D2DDB
:100A5800332D71088600870181160130F407430899
:100A68007506031D382D392D3F2D71088600870125
:100A780001160130F40751087506031D442D452D54
:100A88004B2D71088600870101150130F4074A08CB
:100A98007506031D502D512D572D720886008701AC
:100AA80081170130F4074B087506031D5C2D5D2D79
:100AB800632D72088600870101170130F4074C087E
:100AC8007506031D682D692D6F2D72088600870134
:100AD80081160130F4074D087506031D742D752D18
:100AE8007B2D72088600870101160130F40749083A
:100AF8007506031D802D812D872D730886008701BB
:100B080081170130F40748087506031D8C2D8D2DBB
:100B1800932D73088600870101170130F4074508F3
:100B28007506031D982D992D9F2D73088600870142
:100B380081160130F40746087506031DA42DA52D5E
:100B4800AB2D73088600870101160130F4074708AA
:100B58007506031DB02DB12DB72D730886008701CA
:100B680081150130F4074E087506031DBC2DBD2DF7
:100B7800C32D73088600870101150130F4074F085B
:100B88007506031DC82DC92DCF2D73088600870152
:100B980081140130F40750087506031DD42DD52D96
:100BA800DB2D73088600870101140130F4077408EF
:100BB8000800F400F50104307406031DE42DE52D4A
:100BC800E72D0C30F50005307406031DEC2DED2DD6
:100BD800EF2D0D30F50006307406031DF42DF52DAC
:100BE800F72D0E30F50007307406031DFC2DFD2D82
:100BF800FF2D0F30F5000A307406031D042E052E54
:100C0800072E1430F500F11E0A2E0B2E0E2E750835
:100C18003D009500711E112E122E152E75083D00EF
:100C28009400711D182E192E1C2E75083D00920077
:100C3800F21F1F2E202E232E75083D009F00721FC5
:100C4800262E272E2A2E75083D009E00F21E2D2ED8
:100C58002E2E312E75083D009D00721E342E352E25
:100C6800382E75083D009C00F31F3B2E3C2E3F2E6E
:100C780075083D00A700731F422E432E462E7508A7
:100C88003D00A600F31E492E4A2E4D2E75083D0044
:100C9800A500731E502E512E542E75083D00A40039
:100CA800F31D572E582E5B2E75083D00A300731DAB
:100CB8005E2E5F2E622E75083D00A200F31C652E85
:100CC800662E692E75083D00A100731C6C2E6D2ED2
:100CD800702E75083D00A00008002000C901CA0157
:100CE800CB014930F1004A30F2004B30F3000130BB
:100CF8008531182586312000C80048080319852E3B
:100D0800862EB62E490821008C0420004A082100AE
:100D18008D0420004B0821008E04EF302000B8001D
:100D28009030B9008C31A12486310C302000B800F5
:100D38009030B9004908C200C3014208BA0043080C
:100D4800BB004A08C400C5014408BC004508BD00F2
:100D58004B08C600C7014608BE004708BF008C31D3
:100D6800A12486314930F1004A30F2004B30F300BB
:100D780002308531182586312000C800480803193B
:100D8800C62EC72E032F490821008C0420004A08CC
:100D980021008D0420004B0821008E042000490802
:100DA80024008C0420004A0824008D0420004B08ED
:100DB80024008E04B4302000B8009030B9008C3183
:100DC800A12486310C302000B8009030B9004908C1
:100DD800C200C3014208BA004308BB004A08C40065
:100DE800C5014408BC004508BD004B08C600C70142
:100DF8004608BE004708BF008C31A1248631080090
:100E0800F400F501F11E092F0A2F0C2F0530F5000B
:100E1800711E0F2F102F122F0430F500711D152F82
:100E2800162F182F0230F500F21F1B2F1C2F1E2F14
:100E38000F30F500721F212F222F242F0E30F500BE
:100E4800F21E272F282F2A2F0D30F500721E2D2F66
:100E58002E2F302F0C30F500F31F332F342F362F61
:100E68001730F500731F392F3A2F3C2F1630F50035
:100E7800F31E3F2F402F422F1530F500731E452FCC
:100E8800462F482F1430F500F31D4B2F4C2F4E2FB3
:100E98001330F500731D512F522F542F1230F500C7
:100EA800F31C572F582F5A2F1130F500731C5D2F44
:100EB8005E2F602F1030F5000B307406031D652F70
:100EC800662F702F75083C00A400710821008C045F
:100ED80072088D0473088E04080020000D168D1604
:100EE8000D138E18782F792FD02F8E150E120D1AFC
:100EF8007E2F7F2F9F2F992F0E170330F2008A30F5
:100F0800F1005630890B862FF10B862FF20B862FB6
:100F180020000E130330F2008A30F1005630890B9E
:100F2800932FF10B932FF20B932F20000D1E9D2F63
:100F38009E2F802FC92F8D1AA22FA32FC32FBD2F0D
:100F48000E140330F2008A30F1005630890BAA2FB4
:100F5800F10BAA2FF20BAA2F20000E100330F2007B
:100F68008A30F1005630890BB72FF10BB72FF20BEF
:100F7800B72F20008D1EC12FC22FA42FC92F0D1FE0
:100F8800C62FC72FC92F8E110E160E19CC2FCD2F95
:100F98007B2F8E150E168D17080032001F08F039AA
:100FA80003389F00F030990520008C018D018E01D7
:100FB80021008C018D018E0123008C018D018E0191
:100FC8008D31482587318E315526873184313C242F
:100FD800873186317126873180313C2087318D31C8
:100FE800CF258731CB302000B8009030B9008C3144
:060FF800A124873108006E
:1018AC00033020009F049D011F1508000330280001
:1018BC009704950117150800033028009E049C011D
:1018CC001E150800640080010131890B692C00345D
:1018DC008731D1278C31873171278C31712C803134
:1018EC001628F1000F30250093041F087106FC39EF
:1018FC0071069F0093170800F2000F302500970423
:10190C007208F100F10DF10D1F087106F339710623
:10191C009F0097170800F10020005E08031D972C0C
:10192C00982C992CA02C111E9C2C9D2C992C710858
:10193C0023009A0008003A30FC0000302000B1006F
:10194C00B2003908B4003808B3007C30B5008D31D2
:10195C0080258C310800F2000F30260093047208A9
:10196C00F100F10E25001F087106CF3971069F009A
:10197C00260093170800F81BC42CC52CC62CD12CA0
:10198C007709F9007809FA00F90A0319FA0A7908B3
:10199C00F7007A08F8000800F2000F3026009704D0
:1019AC007208F100F10EF10DF10D25001F08710602
:1019BC003F3971069F002600971708002000540835
:1019CC00031DE92CEA2CEB2CFC2C2108F20020083E
:1019DC00F1002308F4002208F30001308E31EF26C9
:1019EC008C317208250092007108910008002000CB
:1019FC005508031D022D032D042D152D2108F20071
:101A0C002008F1002308F4002208F30002308E3184
:101A1C00EF268C317208250096007108950008009D
:101A2C0020005608031D1B2D1C2D1D2D2E2D2108AD
:101A3C00F2002008F1002308F4002208F300033020
:101A4C008E31EF268D3172082600920071089100BC
:101A5C00080020005708031D342D352D362D472D39
:101A6C002108F2002008F1002308F4002208F300FA
:101A7C0004308E31EF268D317208260096007108E5
:101A8C009500080008302100C100C201C3010930D3
:101A9C00C400C501C601C701C801C901CA01CB01F7
:101AAC00CC01CD01CE01CF01D001D1010C30D2003F
:101ABC000D30D3000E30D400080020005D08031D4B
:101ACC00682D692D6A2D7F2D911A6D2D6E2D6F2D20
:101ADC007F2D23001D19732D742D782D9D1C772DB2
:101AEC00782D7E2D1D120000000023001D167F2D69
:101AFC001908080020003408B7003308B600912DEF
:101B0C003208A1003108A0003630A2003508A3002D
:101B1C008131FD218D312000360884003708850085
:101B2C001200031D9A2D9B2D862DB101B2010800C8
:101B3C00F20015307202031CA42DA52DA62DCE2D5E
:101B4C007203031DAA2DAB2DAC2DCE2D04307206C5
:101B5C00031DB12DB22DB32DCE2D12307206031DE7
:101B6C00B82DB92DBA2DCE2D13307206031DBF2DF5
:101B7C00C02DC12DCE2D14307206031DC62DC72DC0
:101B8C00C82DCE2D7208C03E8600870171088100D9
:101B9C00080001302000D2005208833159238D31C6
:101BAC0001302000D20705305202031CDE2DDF2D40
:101BBC00D22D9830A0003A30A1008830A20013300A
:101BCC00A3008C31E4248D3198302000A0003A30F1
:101BDC00A1008830A2001330A3008C31FD248D317C
:101BEC0098302000A0003A30A1008830A2001330B9
:101BFC00A3008D3116258D3198302000A0003A308D
:101C0C00A1008830A2001330A3008D312F258D3117
:101C1C00080020006403031D142E152E4A2E2100EB
:101C2C009D18192E1A2E4F2E20006335203E86004B
:101C3C00013087000135A03E86000130870021006D
:101C4C001B08C03F1C08C13F01302000E30762089D
:101C5C006302031C322E332E342EE3016335203EF7
:101C6C008600013087000108D53E860087010108F7
:101C7C00F000F00DF00D21001D0870060339700600
:101C8C009D002000E4014F2E21009D140130200006
:101C9C00E400D83020009A00EF309900080007309B
:101CAC00F10003308D319E258E310430F10005306A
:101CBC008D319E258E31F10106308D319E258E3170
:101CCC00F10107308D319E258E31F10108308D31B7
:101CDC009E258E31F10109308D319E258E31F10119
:101CEC000A308D319E258E31F101F10A0B308D3188
:101CFC009E258E31F101F10A0C308D319E258E31ED
:101D0C00F101F10A0D308D319E258E31F101F10A70
:101D1C000E308D319E258E310230F1000F308D3119
:101D2C009E258E31F10110308D319E258E310800AB
:101D3C00F601F41FA22EA32EAA2EF309F409F30A1E
:101D4C000319F40A0130F600F21FAD2EAE2EB32E9D
:101D5C00F109F209F10A0319F20A71087204031964
:101D6C00B82EB92EE02E0130F500C32E0130F1351E
:101D7C00F20D890BBD2E0130F507F21FC62EC72EB2
:101D8C00BC2E72087402031DCD2E71087302031C45
:101D9C00D02ED12ED52E7108F3027208F43B0130EF
:101DAC00F236F10C890BD62E0130F502031DDF2E15
:101DBC00E02EC72E76080319E42EE52EEA2EF30941
:101DCC00F409F30A0319F40A7408F2007308F10019
:101DDC000800F70040307202013003197102031839
:101DEC00F82EF92EFE2E7208F9007108F800022F59
:101DFC000030F8004030F9007908F6007808F5005A
:101E0C000630F636F50C890B072F7508FF3EFA00E5
:101E1C00200061087706031D142F152F182F7A0840
:101E2C009E002B2F60087706031D1D2F1E2F222FBF
:101E3C007A08280096002B2F5F087706031D272FA2
:101E4C00282F2B2F7A0828009D0074087902031D77
:101E5C00312F73087802031C342F352F3F2F730E4C
:101E6C000F39F100740EF039F104740E0F39F200D1
:101E7C00482F780E0F39F100790EF039F104790EF4
:101E8C000F39F2000800F601F21F4D2F4E2F552F7F
:101E9C00F109F209F10A0319F20A0130F600F41FF4
:101EAC00582F592F602FF309F409F30A0319F40A78
:101EBC000130F606F701F801710872040319672F57
:101ECC00682F952F0130F500722F0130F135F20D8E
:101EDC00890B6C2F0130F507F21F752F762F6B2FA6
:101EEC000130F735F80D890B772F72087402031D3A
:101EFC00812F71087302031C842F852F8A2F710880
:101F0C00F3027208F43B77140130F236F10C890BB2
:101F1C008B2F0130F502031D942F952F762F760809
:101F2C000319992F9A2F9F2FF709F809F70A03190C
:101F3C00F80A7808F2007708F100080074087504B4
:101F4C000319A92FAA2FB02F74087504031DAF2FE6
:101F5C00B02FB52F72088C3191248F31FF2F74085C
:101F6C008600750887004931160001040319BF2F3C
:101F7C00C02FE02F74088600750887004931403F58
:101F8C00F600413FF700740886007508870042315F
:101F9C00403FF800413FF9007908803AFA00770891
:101FAC00803A7A02031DDC2F760878020318DF2FA3
:101FBC00E02FFF2F740886007508870042317408E3
:101FCC00840075088500003FF600013FF700403F94
:101FDC0076078400413F773D8500720880007408C5
:101FEC0086007508870042310130810741310318A2
:101FFC00810A0800743469346D34653472342034C9
:10200C003D342034253464342C34203470346F3413
:10201C0072347434413420343D34203430347834C8
:10202C00253478342C34203470346F347234743456
:10203C00423420343D3420343034783425347834F0
:10204C002C34203470346F34723474344334203470
:10205C003D34203430347834253478340D340A341B
:10206C000034523458343A34203470346F3472346F
:10207C007434413420343D342034303478342534B5
:10208C0078342C34203470346F34723474344234D9
:10209C0020343D34203430347834253478342C34A6
:1020AC00203470346F3472347434433420343D34FF
:1020BC00203430347834253478340D340A340034F8
:1020CC00543458343A34203470346F347234743499
:1020DC00413420343D342034303478342534783451
:1020EC002C34203470346F347234743442342034D1
:1020FC003D34203430347834253478342C34203446
:10210C0070346F3472347434433420343D3420349E
:10211C0030347834253478340D340A340034573460
:10212C0065346C3463346F346D34653420347434FA
:10213C006F342034743465346D3470346C346134E1
:10214C00743465345F343134363466343134383475
:10215C003334343436340D340A3400342D342D34C5
:10216C002D342D342D340D340A3449344E3450343E
:10217C00553454345F34503455344C344C34553419
:10218C0050343A340D340A3400342D342D342D347B
:10219C002D342D340D340A34723475346E346E345F
:1021AC0069346E3467342E342E342E340D340A34A4
:1021BC0000342D342D342D342D342D340D340A347B
:1021CC00503457344D34253464343A340D340A3495
:1021DC0000342D342D342D342D342D340D340A345B
:1021EC0049344E345034553454343A340D340A3462
:1021FC0000342D342D342D342D342D340D340A343B
:10220C0055344134523454343A340D340A34003495
:10221C002D342D342D342D342D340D340A344134D9
:10222C00443443343A340D340A3400342D342D34D0
:0C223C002D342D342D340D340A340034C0
:020000040001F9
:08000E00EC1F302FFF1FFF3F24
:00000001FF
